S01200005349474E414C5F47454E2E737265631B
S11300000C942A000C942A010C9447000C94470089
S11300100C9447000C94A1000C9447000C944700E6
S11300200C9447000C9449000C9447000C9447002E
S11300300C9447000C9447000C9447000C94470020
S11300400C9447000C9447000C9447000C94470010
S11300500C94470011241FBECFE5D8E0DEBFCDBF0E
S113006011E0A0E6B0E0EEE9F8E002C005900D92E0
S1130070A83CB107D9F721E0A8ECB1E001C01D927A
S1130080A23EB207E1F70E94FF010C944D040C94C8
S113009000001F920F920FB60F9211248F939F931B
S11300A0EF93FF938091DE019091DF018D319105F3
S11300B034F401969093DF018093DE0104C0109222
S11300C0DF011092DE01E091DE01F091DF01EE0F1D
S11300D0FF1FEE0FFF1F8091E0019091E101E80FF7
S11300E0F91F80818CBF8091C8019091C9019195BD
S11300F0819591099DBD8CBDFF91EF919F918F9149
S11301000F900FBE0F901F9018958091DC01909175
S1130110DD019C01207F33272038310539F0880F19
S1130120991F9093DD018093DC0106C080E190E08B
S11301309093DD018093DC018091DC0180958BBB81
S113014008951F920F920FB60F9211242F933F938D
S11301504F935F936F937F938F939F93AF93BF93CB
S1130160EF93FF930E94850083ED84BDFF91EF918F
S1130170BF91AF919F918F917F916F915F914F91BB
S11301803F912F910F900FBE0F901F901895809163
S1130190DC019091DD0195958795959587959595C9
S11301A087959595879583FB442740F950E0440F44
S11301B0551F440F551F82FB222720F930E0B90157
S11301C0660F771F260F371F240F351FAC014270AF
S11301D05527240F351F81709927820F931F909301
S11301E0DB018093DA0129B32F70422F50E0509342
S11301F0D9014093D8012B3071F018F4273031F035
S11302001EC02D3079F02E30A1F019C01092D70104
S11302101092D60114C024E030E03093D70120932B
S1130220D6010DC028E030E03093D7012093D601E9
S113023006C02CE030E03093D7012093D601209102
S1130240D6013091D701820F931F9093D7018093E9
S1130250D60108951F920F920FB60F9211242F9377
S11302603F934F935F936F937F938F939F93AF933A
S1130270BF93EF93FF930E94C7008091D6019091A2
S1130280D7019C012B50310925303105F0F48C3015
S1130290910569F08D30910589F00B9709F09EC0A6
S11302A080E591E09093E1018093E00197C088EDAF
S11302B090E09093E1018093E00190C080E690E0AB
S11302C09093E1018093E00189C02091D0013091A5
S11302D0D10121303105E1F022303105A1F1232B88
S11302E009F079C021E030E03093D1012093D001AE
S11302F09C01220F331F880F991F880F991F880FA5
S1130300991F820F931F9093D3018093D20163C0EE
S113031022E030E03093D1012093D0010A9721F4F8
S11303201092D7011092D6012091D2013091D301BD
S11303308091D6019091D701820F931F9093D3019E
S11303408093D20148C0409749F48091D2019091A2
S1130350D3019093D5018093D40106C084E690E044
S11303609093D5018093D4011092D1011092D001C1
S11303701092DF011092DE018091D40185BB60915F
S1130380D4017091D501072E000C880B990B0E94A3
S113039074039B01AC0164E575E382E097E40E9479
S11303A0CA026093CC017093CD018093CE019093E7
S11303B0CF010E94000420E030E044EB52E40E94AC
S11303C05D020E943C036093C8017093C90180934D
S11303D0CA019093CB018091D00185BBFF91EF912D
S11303E0BF91AF919F918F917F916F915F914F9149
S11303F03F912F910F900FBE0F901F901895BB9AAD
S113040080EF8ABB8FEF84BB8FE08BBB15BA83B7B9
S1130410896683BF85B5876085BD89B7806489BFD8
S113042087EE84BD8EB581608EBD89B7846089BF37
S113043082E085BF8BB780648BBF789480E190E0C5
S11304409093DD018093DC018FEE8BBB15BA109283
S1130450DF011092DE0184E690E09093D501809351
S1130460D40188ED90E09093E1018093E001109233
S1130470D1011092D0011092D3011092D2018BEAD3
S11304809AEAA6EAB3E48093CC019093CD01A093B9
S1130490CE01B093CF018DEF90E0A0E0B0E0809367
S11304A0C8019093C901A093CA01B093CB011CBEAB
S11304B08CE99FEF9DBD8CBDFFCF5058BB27AA2769
S11304C00E9475020C94C6030E94B80338F00E947F
S11304D0BF0320F039F49F3F19F426F40C94B503BC
S11304E00EF4E095E7FB0C94AF03E92F0E94D703C9
S11304F058F3BA17620773078407950720F079F455
S1130500A6F50C94F9030EF4E0950B2EBA2FA02D4A
S11305100B01B90190010C01CA01A0011124FF27AC
S1130520591B99F0593F50F4503E68F11A16F040A7
S1130530A22F232F342F4427585FF3CF46953795A6
S11305402795A795F0405395C9F77EF41F16BA0B6B
S1130550620B730B840BBAF09150A1F0FF0FBB1F19
S1130560661F771F881FC2F70EC0BA0F621F731F62
S1130570841F48F4879577956795B795F7959E3FBF
S113058008F0B0CF9395880F08F09927EE0F979550
S1130590879508950E94DE020C94C6030E94BF034F
S11305A058F00E94B80340F029F45F3F29F00C94FE
S11305B0AF0351110C94FA030C94B5030E94D703B2
S11305C068F39923B1F3552391F3951B550BBB277E
S11305D0AA2762177307840738F09F5F5F4F220FC3
S11305E0331F441FAA1FA9F335D00E2E3AF0E0E8BA
S11305F032D091505040E695001CCAF72BD0FE2F04
S113060029D0660F771F881FBB1F26173707480797
S1130610AB07B0E809F0BB0B802DBF01FF2793584F
S11306205F4F3AF09E3F510578F00C94AF030C9461
S1130630FA035F3FE4F3983ED4F386957795679584
S1130640B795F7959F5FC9F7880F911D9695879584
S113065097F90895E1E0660F771F881FBB1F6217A3
S113066073078407BA0720F0621B730B840BBA0B61
S1130670EE1F88F7E09508950E9443036894B11132
S11306800C94FA0308950E94DF0388F09F5798F0B2
S1130690B92F9927B751B0F0E1F0660F771F881F83
S11306A0991F1AF0BA95C9F714C0B13091F00E949D
S11306B0F903B1E008950C94F903672F782F882784
S11306C0B85F39F0B93FCCF3869577956795B395C4
S11306D0D9F73EF490958095709561957F4F8F4F33
S11306E09F4F0895E89409C097FB3EF49095809538
S11306F0709561957F4F8F4F9F4F9923A9F0F92FE4
S113070096E9BB279395F695879577956795B79561
S1130710F111F8CFFAF4BB0F11F460FF1BC06F5F47
S11307207F4F8F4F9F4F16C0882311F096E911C059
S1130730772321F09EE8872F762F05C0662371F07A
S113074096E8862F70E060E02AF09A95660F771F8E
S1130750881FDAF7880F9695879597F9089597F982
S11307609F6780E870E060E008959FEF80EC089553
S113077000240A941616170618060906089500247C
S11307800A9412161306140605060895092E0394F6
S1130790000C11F4882352F0BB0F40F4BF2B11F46A
S11307A060FF04C06F5F7F4F8F4F9F4F089557FDC9
S11307B09058440F551F59F05F3F71F04795880FCB
S11307C097FB991F61F09F3F79F087950895121662
S11307D013061406551FF2CF4695F1DF08C016160E
S11307E017061806991FF1CF8695710561050894BF
S11307F00895E894BB2766277727CB0197F90895D6
S11308000E94DF03E8F09E37E8F09639B8F49E388A
S113081048F4672F782F8827985FF9CF86957795C6
S1130820679593959539D0F3B62FB1706B0F711D01
S1130830811D20F487957795679593950C942404EE
S11308400C943F040C94FA03882371F4772321F069
S11308509850872B762F07C0662311F499270DC073
S11308609051862B70E060E02AF09A95660F771F0E
S1130870881FDAF7880F9695879597F908959F3F13
S113088031F0915020F4879577956795B795880F47
S1110890911D9695879597F90895F894FFCFDA
S113089E00000000110000002200000033000000E0
S11308AE44000000550000006600000077000000C0
S11308BE8800000099000000AA000000BB000000A0
S11308CECC000000DD000000EE000000FF00000080
S11308DEEE000000DD000000CC000000BB000000B4
S11308EEAA000000990000008800000077000000B4
S11308FE66000000550000004400000033000000B4
S113090E220000001100000000000000080000009A
S113091E110000001A000000230000002B0000004C
S113092E340000003D000000460000004F000000AF
S113093E5700000060000000690000007200000013
S113094E7B000000830000008C0000009500000076
S113095E9E000000A7000000AF000000B8000000D9
S113096EC1000000CA000000D3000000DB0000003C
S113097EE4000000ED000000F6000000FF0000009F
S113098E800000009A000000B4000000CB000000BC
S113099EDF000000EE000000F9000000FF00000080
S11309AEFF000000F9000000EE000000DF00000070
S11309BECB000000B40000009A000000800000008C
S11309CE650000004B000000340000002000000011
S11309DE11000000060000000000000000000000EE
S11309EE060000001100000020000000340000008A
S10B09FE4B000000650000003D
S9030000FC
